{
  "contractName": "ChessGame",
  "abi": [
    {
      "inputs": [],
      "stateMutability": "nonpayable",
      "type": "constructor"
    },
    {
      "inputs": [
        {
          "internalType": "address",
          "name": "owner",
          "type": "address"
        }
      ],
      "name": "OwnableInvalidOwner",
      "type": "error"
    },
    {
      "inputs": [
        {
          "internalType": "address",
          "name": "account",
          "type": "address"
        }
      ],
      "name": "OwnableUnauthorizedAccount",
      "type": "error"
    },
    {
      "inputs": [],
      "name": "ReentrancyGuardReentrantCall",
      "type": "error"
    },
    {
      "anonymous": false,
      "inputs": [
        {
          "indexed": true,
          "internalType": "uint256",
          "name": "gameId",
          "type": "uint256"
        },
        {
          "indexed": true,
          "internalType": "address",
          "name": "player1",
          "type": "address"
        },
        {
          "indexed": true,
          "internalType": "address",
          "name": "player2",
          "type": "address"
        },
        {
          "indexed": false,
          "internalType": "uint256",
          "name": "stake",
          "type": "uint256"
        }
      ],
      "name": "GameCreated",
      "type": "event"
    },
    {
      "anonymous": false,
      "inputs": [
        {
          "indexed": true,
          "internalType": "uint256",
          "name": "gameId",
          "type": "uint256"
        },
        {
          "indexed": true,
          "internalType": "address",
          "name": "winner",
          "type": "address"
        }
      ],
      "name": "GameFinished",
      "type": "event"
    },
    {
      "anonymous": false,
      "inputs": [
        {
          "indexed": true,
          "internalType": "uint256",
          "name": "gameId",
          "type": "uint256"
        },
        {
          "indexed": true,
          "internalType": "address",
          "name": "player2",
          "type": "address"
        }
      ],
      "name": "GameJoined",
      "type": "event"
    },
    {
      "anonymous": false,
      "inputs": [
        {
          "indexed": true,
          "internalType": "address",
          "name": "previousOwner",
          "type": "address"
        },
        {
          "indexed": true,
          "internalType": "address",
          "name": "newOwner",
          "type": "address"
        }
      ],
      "name": "OwnershipTransferred",
      "type": "event"
    },
    {
      "inputs": [],
      "name": "gameCount",
      "outputs": [
        {
          "internalType": "uint256",
          "name": "",
          "type": "uint256"
        }
      ],
      "stateMutability": "view",
      "type": "function"
    },
    {
      "inputs": [
        {
          "internalType": "uint256",
          "name": "",
          "type": "uint256"
        }
      ],
      "name": "games",
      "outputs": [
        {
          "internalType": "uint256",
          "name": "gameId",
          "type": "uint256"
        },
        {
          "internalType": "address",
          "name": "player1",
          "type": "address"
        },
        {
          "internalType": "address",
          "name": "player2",
          "type": "address"
        },
        {
          "internalType": "uint256",
          "name": "stake",
          "type": "uint256"
        },
        {
          "internalType": "address",
          "name": "winner",
          "type": "address"
        },
        {
          "internalType": "uint256",
          "name": "timestamp",
          "type": "uint256"
        },
        {
          "internalType": "bool",
          "name": "player2Joined",
          "type": "bool"
        },
        {
          "internalType": "bool",
          "name": "isFinished",
          "type": "bool"
        }
      ],
      "stateMutability": "view",
      "type": "function"
    },
    {
      "inputs": [],
      "name": "oracle",
      "outputs": [
        {
          "internalType": "address",
          "name": "",
          "type": "address"
        }
      ],
      "stateMutability": "view",
      "type": "function"
    },
    {
      "inputs": [],
      "name": "owner",
      "outputs": [
        {
          "internalType": "address",
          "name": "",
          "type": "address"
        }
      ],
      "stateMutability": "view",
      "type": "function"
    },
    {
      "inputs": [],
      "name": "renounceOwnership",
      "outputs": [],
      "stateMutability": "nonpayable",
      "type": "function"
    },
    {
      "inputs": [
        {
          "internalType": "address",
          "name": "newOwner",
          "type": "address"
        }
      ],
      "name": "transferOwnership",
      "outputs": [],
      "stateMutability": "nonpayable",
      "type": "function"
    },
    {
      "inputs": [
        {
          "internalType": "address",
          "name": "_oracle",
          "type": "address"
        }
      ],
      "name": "setOracle",
      "outputs": [],
      "stateMutability": "nonpayable",
      "type": "function"
    },
    {
      "inputs": [
        {
          "internalType": "address",
          "name": "_player2",
          "type": "address"
        }
      ],
      "name": "createGame",
      "outputs": [],
      "stateMutability": "payable",
      "type": "function"
    },
    {
      "inputs": [
        {
          "internalType": "uint256",
          "name": "_gameId",
          "type": "uint256"
        }
      ],
      "name": "joinGame",
      "outputs": [],
      "stateMutability": "payable",
      "type": "function"
    },
    {
      "inputs": [
        {
          "internalType": "uint256",
          "name": "_gameId",
          "type": "uint256"
        },
        {
          "internalType": "address",
          "name": "_winner",
          "type": "address"
        }
      ],
      "name": "declareWinner",
      "outputs": [],
      "stateMutability": "nonpayable",
      "type": "function"
    }
  ],
  "bytecode": "0x60806040525f600355348015610013575f80fd5b50338061003957604051631e4fbdf760e01b81525f600482015260240160405180910390fd5b6100428161004c565b506001805561009b565b5f80546001600160a01b038381166001600160a01b0319831681178455604051919092169283917f8be0079c531659141344cd1fd0a4f28419497f9722a3daafe3b4186f6b6457e09190a35050565b610b31806100a85f395ff3fe60806040526004361061008f575f3560e01c80637dc0d1d0116100575780637dc0d1d0146101c35780638da5cb5b146101fa578063e374b09714610216578063efaa55a014610235578063f2fde38b14610248575f80fd5b8063117a5b9014610093578063474d0b5a146101585780634d1975b41461016d578063715018a6146101905780637adbf973146101a4575b5f80fd5b34801561009e575f80fd5b506101036100ad366004610a36565b600260208190525f9182526040909120805460018201549282015460038301546004840154600585015460069095015493956001600160a01b039081169593811694929391169160ff8082169161010090041688565b604080519889526001600160a01b0397881660208a01529587169588019590955260608701939093529316608085015260a084019290925290151560c0830152151560e0820152610100015b60405180910390f35b61016b610166366004610a68565b610267565b005b348015610178575f80fd5b5061018260035481565b60405190815260200161014f565b34801561019b575f80fd5b5061016b61052e565b3480156101af575f80fd5b5061016b6101be366004610a68565b610541565b3480156101ce575f80fd5b506004546101e2906001600160a01b031681565b6040516001600160a01b03909116815260200161014f565b348015610205575f80fd5b505f546001600160a01b03166101e2565b348015610221575f80fd5b5061016b610230366004610a88565b6105ba565b61016b610243366004610a36565b6107a8565b348015610253575f80fd5b5061016b610262366004610a68565b610957565b5f34116102bb5760405162461bcd60e51b815260206004820152601f60248201527f5374616b65206d7573742062652067726561746572207468616e207a65726f0060448201526064015b60405180910390fd5b6001600160a01b0381166103115760405162461bcd60e51b815260206004820152601760248201527f496e76616c696420706c6179657232206164647265737300000000000000000060448201526064016102b2565b336001600160a01b038216036103775760405162461bcd60e51b815260206004820152602560248201527f506c61796572322063616e6e6f74206265207468652073616d6520617320706c604482015264617965723160d81b60648201526084016102b2565b60038054905f61038683610ac6565b91905055506040518061010001604052806003548152602001336001600160a01b03168152602001826001600160a01b031681526020013481526020015f6001600160a01b031681526020014281526020015f151581526020015f151581525060025f60035481526020019081526020015f205f820151815f01556020820151816001015f6101000a8154816001600160a01b0302191690836001600160a01b031602179055506040820151816002015f6101000a8154816001600160a01b0302191690836001600160a01b03160217905550606082015181600301556080820151816004015f6101000a8154816001600160a01b0302191690836001600160a01b0316021790555060a0820151816005015560c0820151816006015f6101000a81548160ff02191690831515021790555060e08201518160060160016101000a81548160ff021916908315150217905550905050806001600160a01b0316336001600160a01b03166003547f6200407c0ea392b8107b21a9be480acd41fda186d04bed28cc7da2d4b53d56e23460405161052391815260200190565b60405180910390a450565b610536610991565b61053f5f6109bd565b565b610549610991565b6001600160a01b0381166105985760405162461bcd60e51b8152602060048201526016602482015275496e76616c6964206f7261636c65206164647265737360501b60448201526064016102b2565b600480546001600160a01b0319166001600160a01b0392909216919091179055565b6004546001600160a01b031633146106205760405162461bcd60e51b815260206004820152602360248201527f43616c6c6572206973206e6f742074686520617574686f72697a6564206f7261604482015262636c6560e81b60648201526084016102b2565b610628610a0c565b5f8281526002602052604090206006810154610100900460ff16156106875760405162461bcd60e51b815260206004820152601560248201527411d85b5948185b1c9958591e48199a5b9a5cda1959605a1b60448201526064016102b2565b60018101546001600160a01b03838116911614806106b4575060028101546001600160a01b038381169116145b6106f95760405162461bcd60e51b8152602060048201526016602482015275496e76616c69642077696e6e6572206164647265737360501b60448201526064016102b2565b6004810180546001600160a01b0384166001600160a01b0319909116811790915560068201805461ff00191661010017905560038201546108fc9061073f906002610ade565b6040518115909202915f818181858888f19350505050158015610764573d5f803e3d5ffd5b506040516001600160a01b0383169084907fb7f35e624e036288272fbf3342c09219261ff29fdddd826989b289134e9ae535905f90a3506107a460018055565b5050565b6107b0610a0c565b5f818152600260208190526040909120908101546001600160a01b0316331461081b5760405162461bcd60e51b815260206004820152601e60248201527f596f7520617265206e6f742074686520696e766974656420706c61796572000060448201526064016102b2565b60048101546001600160a01b03161561086e5760405162461bcd60e51b815260206004820152601560248201527411d85b5948185b1c9958591e48199a5b9a5cda1959605a1b60448201526064016102b2565b806003015434146108c15760405162461bcd60e51b815260206004820152601760248201527f5374616b6520616d6f756e74206d757374206d6174636800000000000000000060448201526064016102b2565b600681015460ff161561090f5760405162461bcd60e51b8152602060048201526016602482015275141b185e595c8c88185b1c9958591e481a9bda5b995960521b60448201526064016102b2565b60068101805460ff19166001179055604051339083907f45c4f9cbafe186141862608c493f28b823fde4c2142bedc3f5169961a73fdd22905f90a35061095460018055565b50565b61095f610991565b6001600160a01b03811661098857604051631e4fbdf760e01b81525f60048201526024016102b2565b610954816109bd565b5f546001600160a01b0316331461053f5760405163118cdaa760e01b81523360048201526024016102b2565b5f80546001600160a01b038381166001600160a01b0319831681178455604051919092169283917f8be0079c531659141344cd1fd0a4f28419497f9722a3daafe3b4186f6b6457e09190a35050565b600260015403610a2f57604051633ee5aeb560e01b815260040160405180910390fd5b6002600155565b5f60208284031215610a46575f80fd5b5035919050565b80356001600160a01b0381168114610a63575f80fd5b919050565b5f60208284031215610a78575f80fd5b610a8182610a4d565b9392505050565b5f8060408385031215610a99575f80fd5b82359150610aa960208401610a4d565b90509250929050565b634e487b7160e01b5f52601160045260245ffd5b5f60018201610ad757610ad7610ab2565b5060010190565b8082028115828204841417610af557610af5610ab2565b9291505056fea26469706673582212201b7372fee015eb9821db1b315c14ded90fa7224991cf25cddcf647789b9ccb5064736f6c63430008140033",
  "immutableReferences": {},
  "source": "// chessbit-contracts/contracts/ChessGame.sol\n// SPDX-License-Identifier: MIT\npragma solidity ^0.8.20;\n\nimport \"@openzeppelin/contracts/access/Ownable.sol\";\nimport \"@openzeppelin/contracts/utils/ReentrancyGuard.sol\";\n\ncontract ChessGame is Ownable, ReentrancyGuard {\n    struct Game {\n        uint256 gameId;\n        address player1;\n        address player2;\n        uint256 stake;\n        address winner;\n        uint256 timestamp;\n        bool player2Joined;\n        bool isFinished;\n    }\n\n    mapping(uint256 => Game) public games;\n    uint256 public gameCount = 0;\n\n    // Oracle address for winner declaration\n    address public oracle;\n\n    constructor() Ownable(msg.sender) {\n  \n  }\n\n    // Events\n    event GameCreated(uint256 indexed gameId, address indexed player1, address indexed player2, uint256 stake);\n    event GameJoined(uint256 indexed gameId, address indexed player2);\n    event GameFinished(uint256 indexed gameId, address indexed winner);\n\n    // Modifier to check if caller is the authorized oracle\n    modifier onlyOracle() {\n        require(msg.sender == oracle, \"Caller is not the authorized oracle\");\n        _;\n    }\n\n    // Function to set the oracle address (only owner can set)\n    function setOracle(address _oracle) external onlyOwner {\n        require(_oracle != address(0), \"Invalid oracle address\");\n        oracle = _oracle;\n    }\n\n    // Create a new game\n    function createGame(address _player2) public payable {\n        require(msg.value > 0, \"Stake must be greater than zero\");\n        require(_player2 != address(0), \"Invalid player2 address\");\n        require(_player2 != msg.sender, \"Player2 cannot be the same as player1\");\n\n        gameCount++;\n        games[gameCount] = Game({\n            gameId: gameCount,\n            player1: msg.sender,\n            player2: _player2,\n            stake: msg.value,\n            winner: address(0),\n            timestamp: block.timestamp,\n            player2Joined: false,\n            isFinished: false\n        });\n\n        emit GameCreated(gameCount, msg.sender, _player2, msg.value);\n    }\n\n    // Join an existing game\n    function joinGame(uint256 _gameId) public payable nonReentrant {\n        Game storage game = games[_gameId];\n        require(game.player2 == msg.sender, \"You are not the invited player\");\n        require(game.winner == address(0), \"Game already finished\");\n        require(msg.value == game.stake, \"Stake amount must match\");\n        require(!game.player2Joined, \"Player2 already joined\");\n\n        game.player2Joined = true;\n\n        emit GameJoined(_gameId, msg.sender);\n    }\n\n    // Function for the oracle to declare the winner\n    function declareWinner(uint256 _gameId, address _winner) external onlyOracle nonReentrant {\n        Game storage game = games[_gameId];\n        require(!game.isFinished, \"Game already finished\");\n        require(_winner == game.player1 || _winner == game.player2, \"Invalid winner address\");\n\n        game.winner = _winner;\n        game.isFinished = true;\n\n        // Transfer the combined stake to the winner\n        payable(_winner).transfer(game.stake * 2);\n\n        emit GameFinished(_gameId, _winner);\n    }\n}",
  "sourcePath": "/Users/leonslenkovs/Desktop/Projects/chessbit/chessbit-contracts/contracts/ChessGame.sol",
  "compiler": {
    "name": "solc",
    "version": "0.8.20+commit.a1b79de6.Emscripten.clang"
  },
  "schemaVersion": "3.4.16",
  "updatedAt": "2024-09-29T18:54:36.263Z",
  "devdoc": {
    "errors": {
      "OwnableInvalidOwner(address)": [
        {
          "details": "The owner is not a valid owner account. (eg. `address(0)`)"
        }
      ],
      "OwnableUnauthorizedAccount(address)": [
        {
          "details": "The caller account is not authorized to perform an operation."
        }
      ],
      "ReentrancyGuardReentrantCall()": [
        {
          "details": "Unauthorized reentrant call."
        }
      ]
    },
    "kind": "dev",
    "methods": {
      "owner()": {
        "details": "Returns the address of the current owner."
      },
      "renounceOwnership()": {
        "details": "Leaves the contract without owner. It will not be possible to call `onlyOwner` functions. Can only be called by the current owner. NOTE: Renouncing ownership will leave the contract without an owner, thereby disabling any functionality that is only available to the owner."
      },
      "transferOwnership(address)": {
        "details": "Transfers ownership of the contract to a new account (`newOwner`). Can only be called by the current owner."
      }
    },
    "version": 1
  },
  "userdoc": {
    "kind": "user",
    "methods": {},
    "version": 1
  }
}