{
  "_format": "hh-sol-artifact-1",
  "contractName": "GameContract",
  "sourceName": "contracts/GameContract.sol",
  "abi": [
    {
      "inputs": [
        {
          "internalType": "address",
          "name": "tokenAddress",
          "type": "address"
        }
      ],
      "stateMutability": "nonpayable",
      "type": "constructor"
    },
    {
      "anonymous": false,
      "inputs": [
        {
          "indexed": false,
          "internalType": "uint256",
          "name": "gameId",
          "type": "uint256"
        },
        {
          "indexed": true,
          "internalType": "address",
          "name": "player1",
          "type": "address"
        },
        {
          "indexed": false,
          "internalType": "uint256",
          "name": "stake",
          "type": "uint256"
        }
      ],
      "name": "GameCreated",
      "type": "event"
    },
    {
      "anonymous": false,
      "inputs": [
        {
          "indexed": false,
          "internalType": "uint256",
          "name": "gameId",
          "type": "uint256"
        },
        {
          "indexed": true,
          "internalType": "address",
          "name": "winner",
          "type": "address"
        }
      ],
      "name": "GameEnded",
      "type": "event"
    },
    {
      "anonymous": false,
      "inputs": [
        {
          "indexed": false,
          "internalType": "uint256",
          "name": "gameId",
          "type": "uint256"
        },
        {
          "indexed": true,
          "internalType": "address",
          "name": "player2",
          "type": "address"
        }
      ],
      "name": "GameJoined",
      "type": "event"
    },
    {
      "inputs": [
        {
          "internalType": "uint256",
          "name": "_stake",
          "type": "uint256"
        }
      ],
      "name": "createGame",
      "outputs": [],
      "stateMutability": "nonpayable",
      "type": "function"
    },
    {
      "inputs": [
        {
          "internalType": "uint256",
          "name": "_gameId",
          "type": "uint256"
        },
        {
          "internalType": "address",
          "name": "_winner",
          "type": "address"
        }
      ],
      "name": "endGame",
      "outputs": [],
      "stateMutability": "nonpayable",
      "type": "function"
    },
    {
      "inputs": [],
      "name": "gameCount",
      "outputs": [
        {
          "internalType": "uint256",
          "name": "",
          "type": "uint256"
        }
      ],
      "stateMutability": "view",
      "type": "function"
    },
    {
      "inputs": [
        {
          "internalType": "uint256",
          "name": "",
          "type": "uint256"
        }
      ],
      "name": "games",
      "outputs": [
        {
          "internalType": "address",
          "name": "player1",
          "type": "address"
        },
        {
          "internalType": "address",
          "name": "player2",
          "type": "address"
        },
        {
          "internalType": "uint256",
          "name": "stake",
          "type": "uint256"
        },
        {
          "internalType": "bool",
          "name": "isActive",
          "type": "bool"
        },
        {
          "internalType": "address",
          "name": "winner",
          "type": "address"
        }
      ],
      "stateMutability": "view",
      "type": "function"
    },
    {
      "inputs": [
        {
          "internalType": "uint256",
          "name": "_gameId",
          "type": "uint256"
        }
      ],
      "name": "joinGame",
      "outputs": [],
      "stateMutability": "nonpayable",
      "type": "function"
    },
    {
      "inputs": [],
      "name": "token",
      "outputs": [
        {
          "internalType": "contract IERC20",
          "name": "",
          "type": "address"
        }
      ],
      "stateMutability": "view",
      "type": "function"
    }
  ],
  "bytecode": "0x60806040523480156200001157600080fd5b50604051620012a9380380620012a98339818101604052810190620000379190620000e8565b806000806101000a81548173ffffffffffffffffffffffffffffffffffffffff021916908373ffffffffffffffffffffffffffffffffffffffff160217905550506200011a565b600080fd5b600073ffffffffffffffffffffffffffffffffffffffff82169050919050565b6000620000b08262000083565b9050919050565b620000c281620000a3565b8114620000ce57600080fd5b50565b600081519050620000e281620000b7565b92915050565b6000602082840312156200010157620001006200007e565b5b60006200011184828501620000d1565b91505092915050565b61117f806200012a6000396000f3fe608060405234801561001057600080fd5b50600436106100625760003560e01c8063117a5b901461006757806348e837b91461009b5780634d1975b4146100b757806386514131146100d5578063efaa55a0146100f1578063fc0c546a1461010d575b600080fd5b610081600480360381019061007c9190610b03565b61012b565b604051610092959493929190610b9b565b60405180910390f35b6100b560048036038101906100b09190610b03565b6101ce565b005b6100bf61049f565b6040516100cc9190610bee565b60405180910390f35b6100ef60048036038101906100ea9190610c35565b6104a5565b005b61010b60048036038101906101069190610b03565b61079f565b005b610115610aa4565b6040516101229190610cd4565b60405180910390f35b60026020528060005260406000206000915090508060000160009054906101000a900473ffffffffffffffffffffffffffffffffffffffff16908060010160009054906101000a900473ffffffffffffffffffffffffffffffffffffffff16908060020154908060030160009054906101000a900460ff16908060030160019054906101000a900473ffffffffffffffffffffffffffffffffffffffff16905085565b60008054906101000a900473ffffffffffffffffffffffffffffffffffffffff1673ffffffffffffffffffffffffffffffffffffffff166323b872dd3330846040518463ffffffff1660e01b815260040161022b93929190610cef565b6020604051808303816000875af115801561024a573d6000803e3d6000fd5b505050506040513d601f19601f8201168201806040525081019061026e9190610d52565b6102ad576040517f08c379a00000000000000000000000000000000000000000000000000000000081526004016102a490610ddc565b60405180910390fd5b600160008154809291906102c090610e2b565b91905055506040518060a001604052803373ffffffffffffffffffffffffffffffffffffffff168152602001600073ffffffffffffffffffffffffffffffffffffffff168152602001828152602001600115158152602001600073ffffffffffffffffffffffffffffffffffffffff1681525060026000600154815260200190815260200160002060008201518160000160006101000a81548173ffffffffffffffffffffffffffffffffffffffff021916908373ffffffffffffffffffffffffffffffffffffffff16021790555060208201518160010160006101000a81548173ffffffffffffffffffffffffffffffffffffffff021916908373ffffffffffffffffffffffffffffffffffffffff1602179055506040820151816002015560608201518160030160006101000a81548160ff02191690831515021790555060808201518160030160016101000a81548173ffffffffffffffffffffffffffffffffffffffff021916908373ffffffffffffffffffffffffffffffffffffffff1602179055509050503373ffffffffffffffffffffffffffffffffffffffff167f7dfb67e9ff596fca4da65c7eedb128cd1aac553af54b3c0cb733625a2480d8bd60015483604051610494929190610e73565b60405180910390a250565b60015481565b60006002600084815260200190815260200160002090508060030160009054906101000a900460ff1661050d576040517f08c379a000000000000000000000000000000000000000000000000000000000815260040161050490610ee8565b60405180910390fd5b8060000160009054906101000a900473ffffffffffffffffffffffffffffffffffffffff1673ffffffffffffffffffffffffffffffffffffffff168273ffffffffffffffffffffffffffffffffffffffff1614806105ba57508060010160009054906101000a900473ffffffffffffffffffffffffffffffffffffffff1673ffffffffffffffffffffffffffffffffffffffff168273ffffffffffffffffffffffffffffffffffffffff16145b6105f9576040517f08c379a00000000000000000000000000000000000000000000000000000000081526004016105f090610f54565b60405180910390fd5b60008160030160006101000a81548160ff021916908315150217905550818160030160016101000a81548173ffffffffffffffffffffffffffffffffffffffff021916908373ffffffffffffffffffffffffffffffffffffffff16021790555060006002826002015461066c9190610f74565b905060008054906101000a900473ffffffffffffffffffffffffffffffffffffffff1673ffffffffffffffffffffffffffffffffffffffff1663a9059cbb84836040518363ffffffff1660e01b81526004016106c9929190610fb6565b6020604051808303816000875af11580156106e8573d6000803e3d6000fd5b505050506040513d601f19601f8201168201806040525081019061070c9190610d52565b61074b576040517f08c379a00000000000000000000000000000000000000000000000000000000081526004016107429061102b565b60405180910390fd5b8273ffffffffffffffffffffffffffffffffffffffff167f3d5fcd8fa3235aeb3897f25c8ea49989174981afcb01b9d03189d1056a16775b856040516107919190610bee565b60405180910390a250505050565b60006002600083815260200190815260200160002090508060030160009054906101000a900460ff16610807576040517f08c379a00000000000000000000000000000000000000000000000000000000081526004016107fe90610ee8565b60405180910390fd5b600073ffffffffffffffffffffffffffffffffffffffff168160010160009054906101000a900473ffffffffffffffffffffffffffffffffffffffff1673ffffffffffffffffffffffffffffffffffffffff161461089a576040517f08c379a000000000000000000000000000000000000000000000000000000000815260040161089190611097565b60405180910390fd5b8060000160009054906101000a900473ffffffffffffffffffffffffffffffffffffffff1673ffffffffffffffffffffffffffffffffffffffff163373ffffffffffffffffffffffffffffffffffffffff160361092c576040517f08c379a000000000000000000000000000000000000000000000000000000000815260040161092390611129565b60405180910390fd5b60008054906101000a900473ffffffffffffffffffffffffffffffffffffffff1673ffffffffffffffffffffffffffffffffffffffff166323b872dd333084600201546040518463ffffffff1660e01b815260040161098d93929190610cef565b6020604051808303816000875af11580156109ac573d6000803e3d6000fd5b505050506040513d601f19601f820116820180604052508101906109d09190610d52565b610a0f576040517f08c379a0000000000000000000000000000000000000000000000000000000008152600401610a0690610ddc565b60405180910390fd5b338160010160006101000a81548173ffffffffffffffffffffffffffffffffffffffff021916908373ffffffffffffffffffffffffffffffffffffffff1602179055503373ffffffffffffffffffffffffffffffffffffffff167f45c4f9cbafe186141862608c493f28b823fde4c2142bedc3f5169961a73fdd2283604051610a989190610bee565b60405180910390a25050565b60008054906101000a900473ffffffffffffffffffffffffffffffffffffffff1681565b600080fd5b6000819050919050565b610ae081610acd565b8114610aeb57600080fd5b50565b600081359050610afd81610ad7565b92915050565b600060208284031215610b1957610b18610ac8565b5b6000610b2784828501610aee565b91505092915050565b600073ffffffffffffffffffffffffffffffffffffffff82169050919050565b6000610b5b82610b30565b9050919050565b610b6b81610b50565b82525050565b610b7a81610acd565b82525050565b60008115159050919050565b610b9581610b80565b82525050565b600060a082019050610bb06000830188610b62565b610bbd6020830187610b62565b610bca6040830186610b71565b610bd76060830185610b8c565b610be46080830184610b62565b9695505050505050565b6000602082019050610c036000830184610b71565b92915050565b610c1281610b50565b8114610c1d57600080fd5b50565b600081359050610c2f81610c09565b92915050565b60008060408385031215610c4c57610c4b610ac8565b5b6000610c5a85828601610aee565b9250506020610c6b85828601610c20565b9150509250929050565b6000819050919050565b6000610c9a610c95610c9084610b30565b610c75565b610b30565b9050919050565b6000610cac82610c7f565b9050919050565b6000610cbe82610ca1565b9050919050565b610cce81610cb3565b82525050565b6000602082019050610ce96000830184610cc5565b92915050565b6000606082019050610d046000830186610b62565b610d116020830185610b62565b610d1e6040830184610b71565b949350505050565b610d2f81610b80565b8114610d3a57600080fd5b50565b600081519050610d4c81610d26565b92915050565b600060208284031215610d6857610d67610ac8565b5b6000610d7684828501610d3d565b91505092915050565b600082825260208201905092915050565b7f5374616b65207472616e73666572206661696c65640000000000000000000000600082015250565b6000610dc6601583610d7f565b9150610dd182610d90565b602082019050919050565b60006020820190508181036000830152610df581610db9565b9050919050565b7f4e487b7100000000000000000000000000000000000000000000000000000000600052601160045260246000fd5b6000610e3682610acd565b91507fffffffffffffffffffffffffffffffffffffffffffffffffffffffffffffffff8203610e6857610e67610dfc565b5b600182019050919050565b6000604082019050610e886000830185610b71565b610e956020830184610b71565b9392505050565b7f47616d65206973206e6f74206163746976650000000000000000000000000000600082015250565b6000610ed2601283610d7f565b9150610edd82610e9c565b602082019050919050565b60006020820190508181036000830152610f0181610ec5565b9050919050565b7f496e76616c69642077696e6e6572206164647265737300000000000000000000600082015250565b6000610f3e601683610d7f565b9150610f4982610f08565b602082019050919050565b60006020820190508181036000830152610f6d81610f31565b9050919050565b6000610f7f82610acd565b9150610f8a83610acd565b9250828202610f9881610acd565b91508282048414831517610faf57610fae610dfc565b5b5092915050565b6000604082019050610fcb6000830185610b62565b610fd86020830184610b71565b9392505050565b7f526577617264207472616e73666572206661696c656400000000000000000000600082015250565b6000611015601683610d7f565b915061102082610fdf565b602082019050919050565b6000602082019050818103600083015261104481611008565b9050919050565b7f47616d6520616c7265616479206861732061207365636f6e6420706c61796572600082015250565b6000611081602083610d7f565b915061108c8261104b565b602082019050919050565b600060208201905081810360008301526110b081611074565b9050919050565b7f506c617965722063616e6e6f74206a6f696e207468656972206f776e2067616d60008201527f6500000000000000000000000000000000000000000000000000000000000000602082015250565b6000611113602183610d7f565b915061111e826110b7565b604082019050919050565b6000602082019050818103600083015261114281611106565b905091905056fea2646970667358221220666ea30e332f9936a9c5649da20e3c5e29fc96712db529d055ad88bdcd9c460464736f6c63430008140033",
  "linkReferences": {},
  "deployedLinkReferences": {}
}