{
  "contractName": "ChessGame",
  "abi": [
    {
      "anonymous": false,
      "inputs": [
        {
          "indexed": true,
          "internalType": "uint256",
          "name": "gameId",
          "type": "uint256"
        },
        {
          "indexed": true,
          "internalType": "address",
          "name": "player1",
          "type": "address"
        },
        {
          "indexed": true,
          "internalType": "address",
          "name": "player2",
          "type": "address"
        },
        {
          "indexed": false,
          "internalType": "uint256",
          "name": "stake",
          "type": "uint256"
        }
      ],
      "name": "GameCreated",
      "type": "event"
    },
    {
      "anonymous": false,
      "inputs": [
        {
          "indexed": true,
          "internalType": "uint256",
          "name": "gameId",
          "type": "uint256"
        },
        {
          "indexed": true,
          "internalType": "address",
          "name": "winner",
          "type": "address"
        }
      ],
      "name": "GameFinished",
      "type": "event"
    },
    {
      "anonymous": false,
      "inputs": [
        {
          "indexed": true,
          "internalType": "uint256",
          "name": "gameId",
          "type": "uint256"
        },
        {
          "indexed": true,
          "internalType": "address",
          "name": "player2",
          "type": "address"
        }
      ],
      "name": "GameJoined",
      "type": "event"
    },
    {
      "inputs": [],
      "name": "gameCount",
      "outputs": [
        {
          "internalType": "uint256",
          "name": "",
          "type": "uint256"
        }
      ],
      "stateMutability": "view",
      "type": "function",
      "constant": true
    },
    {
      "inputs": [
        {
          "internalType": "uint256",
          "name": "",
          "type": "uint256"
        }
      ],
      "name": "games",
      "outputs": [
        {
          "internalType": "uint256",
          "name": "gameId",
          "type": "uint256"
        },
        {
          "internalType": "address",
          "name": "player1",
          "type": "address"
        },
        {
          "internalType": "address",
          "name": "player2",
          "type": "address"
        },
        {
          "internalType": "uint256",
          "name": "stake",
          "type": "uint256"
        },
        {
          "internalType": "address",
          "name": "winner",
          "type": "address"
        },
        {
          "internalType": "uint256",
          "name": "timestamp",
          "type": "uint256"
        },
        {
          "internalType": "bool",
          "name": "player2Joined",
          "type": "bool"
        }
      ],
      "stateMutability": "view",
      "type": "function",
      "constant": true
    },
    {
      "inputs": [
        {
          "internalType": "address",
          "name": "_player2",
          "type": "address"
        }
      ],
      "name": "createGame",
      "outputs": [],
      "stateMutability": "payable",
      "type": "function",
      "payable": true
    },
    {
      "inputs": [
        {
          "internalType": "uint256",
          "name": "_gameId",
          "type": "uint256"
        }
      ],
      "name": "joinGame",
      "outputs": [],
      "stateMutability": "payable",
      "type": "function",
      "payable": true
    },
    {
      "inputs": [
        {
          "internalType": "uint256",
          "name": "_gameId",
          "type": "uint256"
        },
        {
          "internalType": "address",
          "name": "_winner",
          "type": "address"
        }
      ],
      "name": "declareWinner",
      "outputs": [],
      "stateMutability": "nonpayable",
      "type": "function"
    }
  ],
  "bytecode": "0x6080604052600060015534801561001557600080fd5b5061119d806100256000396000f3fe60806040526004361061004a5760003560e01c8063117a5b901461004f578063474d0b5a146100925780634d1975b4146100ae578063e374b097146100d9578063efaa55a014610102575b600080fd5b34801561005b57600080fd5b5061007660048036038101906100719190610b0c565b61011e565b6040516100899796959493929190610f9f565b60405180910390f35b6100ac60048036038101906100a79190610ae3565b6101cd565b005b3480156100ba57600080fd5b506100c3610517565b6040516100d09190610f84565b60405180910390f35b3480156100e557600080fd5b5061010060048036038101906100fb9190610b35565b61051d565b005b61011c60048036038101906101179190610b0c565b610881565b005b60006020528060005260406000206000915090508060000154908060010160009054906101000a900473ffffffffffffffffffffffffffffffffffffffff16908060020160009054906101000a900473ffffffffffffffffffffffffffffffffffffffff16908060030154908060040160009054906101000a900473ffffffffffffffffffffffffffffffffffffffff16908060050154908060060160009054906101000a900460ff16905087565b60003411610210576040517f08c379a000000000000000000000000000000000000000000000000000000000815260040161020790610f04565b60405180910390fd5b600073ffffffffffffffffffffffffffffffffffffffff168173ffffffffffffffffffffffffffffffffffffffff161415610280576040517f08c379a000000000000000000000000000000000000000000000000000000000815260040161027790610e44565b60405180910390fd5b3373ffffffffffffffffffffffffffffffffffffffff168173ffffffffffffffffffffffffffffffffffffffff1614156102ef576040517f08c379a00000000000000000000000000000000000000000000000000000000081526004016102e690610ec4565b60405180910390fd5b60016000815480929190610302906110c1565b91905055506040518060e0016040528060015481526020013373ffffffffffffffffffffffffffffffffffffffff1681526020018273ffffffffffffffffffffffffffffffffffffffff168152602001348152602001600073ffffffffffffffffffffffffffffffffffffffff1681526020014281526020016000151581525060008060015481526020019081526020016000206000820151816000015560208201518160010160006101000a81548173ffffffffffffffffffffffffffffffffffffffff021916908373ffffffffffffffffffffffffffffffffffffffff16021790555060408201518160020160006101000a81548173ffffffffffffffffffffffffffffffffffffffff021916908373ffffffffffffffffffffffffffffffffffffffff1602179055506060820151816003015560808201518160040160006101000a81548173ffffffffffffffffffffffffffffffffffffffff021916908373ffffffffffffffffffffffffffffffffffffffff16021790555060a0820151816005015560c08201518160060160006101000a81548160ff0219169083151502179055509050508073ffffffffffffffffffffffffffffffffffffffff163373ffffffffffffffffffffffffffffffffffffffff166001547f6200407c0ea392b8107b21a9be480acd41fda186d04bed28cc7da2d4b53d56e23460405161050c9190610f84565b60405180910390a450565b60015481565b60008060008481526020019081526020016000209050600073ffffffffffffffffffffffffffffffffffffffff168160040160009054906101000a900473ffffffffffffffffffffffffffffffffffffffff1673ffffffffffffffffffffffffffffffffffffffff16146105c6576040517f08c379a00000000000000000000000000000000000000000000000000000000081526004016105bd90610f64565b60405180910390fd5b8060010160009054906101000a900473ffffffffffffffffffffffffffffffffffffffff1673ffffffffffffffffffffffffffffffffffffffff163373ffffffffffffffffffffffffffffffffffffffff16148061067357508060020160009054906101000a900473ffffffffffffffffffffffffffffffffffffffff1673ffffffffffffffffffffffffffffffffffffffff163373ffffffffffffffffffffffffffffffffffffffff16145b6106b2576040517f08c379a00000000000000000000000000000000000000000000000000000000081526004016106a990610e64565b60405180910390fd5b8060010160009054906101000a900473ffffffffffffffffffffffffffffffffffffffff1673ffffffffffffffffffffffffffffffffffffffff168273ffffffffffffffffffffffffffffffffffffffff16148061075f57508060020160009054906101000a900473ffffffffffffffffffffffffffffffffffffffff1673ffffffffffffffffffffffffffffffffffffffff168273ffffffffffffffffffffffffffffffffffffffff16145b61079e576040517f08c379a000000000000000000000000000000000000000000000000000000000815260040161079590610f44565b60405180910390fd5b818160040160006101000a81548173ffffffffffffffffffffffffffffffffffffffff021916908373ffffffffffffffffffffffffffffffffffffffff1602179055508173ffffffffffffffffffffffffffffffffffffffff166108fc6002836003015461080c919061101f565b9081150290604051600060405180830381858888f19350505050158015610837573d6000803e3d6000fd5b508173ffffffffffffffffffffffffffffffffffffffff16837fb7f35e624e036288272fbf3342c09219261ff29fdddd826989b289134e9ae53560405160405180910390a3505050565b600080600083815260200190815260200160002090503373ffffffffffffffffffffffffffffffffffffffff168160020160009054906101000a900473ffffffffffffffffffffffffffffffffffffffff1673ffffffffffffffffffffffffffffffffffffffff1614610929576040517f08c379a000000000000000000000000000000000000000000000000000000000815260040161092090610ee4565b60405180910390fd5b600073ffffffffffffffffffffffffffffffffffffffff168160040160009054906101000a900473ffffffffffffffffffffffffffffffffffffffff1673ffffffffffffffffffffffffffffffffffffffff16146109bc576040517f08c379a00000000000000000000000000000000000000000000000000000000081526004016109b390610ea4565b60405180910390fd5b80600301543414610a02576040517f08c379a00000000000000000000000000000000000000000000000000000000081526004016109f990610f24565b60405180910390fd5b8060060160009054906101000a900460ff1615610a54576040517f08c379a0000000000000000000000000000000000000000000000000000000008152600401610a4b90610e84565b60405180910390fd5b60018160060160006101000a81548160ff0219169083151502179055503373ffffffffffffffffffffffffffffffffffffffff16827f45c4f9cbafe186141862608c493f28b823fde4c2142bedc3f5169961a73fdd2260405160405180910390a35050565b600081359050610ac881611139565b92915050565b600081359050610add81611150565b92915050565b600060208284031215610af557600080fd5b6000610b0384828501610ab9565b91505092915050565b600060208284031215610b1e57600080fd5b6000610b2c84828501610ace565b91505092915050565b60008060408385031215610b4857600080fd5b6000610b5685828601610ace565b9250506020610b6785828601610ab9565b9150509250929050565b610b7a81611079565b82525050565b610b898161108b565b82525050565b6000610b9c60178361100e565b91507f496e76616c696420706c617965723220616464726573730000000000000000006000830152602082019050919050565b6000610bdc601f8361100e565b91507f4f6e6c7920706c61796572732063616e206465636c6172652077696e6e6572006000830152602082019050919050565b6000610c1c60168361100e565b91507f506c617965723220616c7265616479206a6f696e6564000000000000000000006000830152602082019050919050565b6000610c5c60158361100e565b91507f47616d6520616c72656164792066696e697368656400000000000000000000006000830152602082019050919050565b6000610c9c60258361100e565b91507f506c61796572322063616e6e6f74206265207468652073616d6520617320706c60008301527f61796572310000000000000000000000000000000000000000000000000000006020830152604082019050919050565b6000610d02601e8361100e565b91507f596f7520617265206e6f742074686520696e766974656420706c6179657200006000830152602082019050919050565b6000610d42601f8361100e565b91507f5374616b65206d7573742062652067726561746572207468616e207a65726f006000830152602082019050919050565b6000610d8260178361100e565b91507f5374616b6520616d6f756e74206d757374206d617463680000000000000000006000830152602082019050919050565b6000610dc260168361100e565b91507f496e76616c69642077696e6e65722061646472657373000000000000000000006000830152602082019050919050565b6000610e0260178361100e565b91507f57696e6e657220616c7265616479206465636c617265640000000000000000006000830152602082019050919050565b610e3e816110b7565b82525050565b60006020820190508181036000830152610e5d81610b8f565b9050919050565b60006020820190508181036000830152610e7d81610bcf565b9050919050565b60006020820190508181036000830152610e9d81610c0f565b9050919050565b60006020820190508181036000830152610ebd81610c4f565b9050919050565b60006020820190508181036000830152610edd81610c8f565b9050919050565b60006020820190508181036000830152610efd81610cf5565b9050919050565b60006020820190508181036000830152610f1d81610d35565b9050919050565b60006020820190508181036000830152610f3d81610d75565b9050919050565b60006020820190508181036000830152610f5d81610db5565b9050919050565b60006020820190508181036000830152610f7d81610df5565b9050919050565b6000602082019050610f996000830184610e35565b92915050565b600060e082019050610fb4600083018a610e35565b610fc16020830189610b71565b610fce6040830188610b71565b610fdb6060830187610e35565b610fe86080830186610b71565b610ff560a0830185610e35565b61100260c0830184610b80565b98975050505050505050565b600082825260208201905092915050565b600061102a826110b7565b9150611035836110b7565b9250817fffffffffffffffffffffffffffffffffffffffffffffffffffffffffffffffff048311821515161561106e5761106d61110a565b5b828202905092915050565b600061108482611097565b9050919050565b60008115159050919050565b600073ffffffffffffffffffffffffffffffffffffffff82169050919050565b6000819050919050565b60006110cc826110b7565b91507fffffffffffffffffffffffffffffffffffffffffffffffffffffffffffffffff8214156110ff576110fe61110a565b5b600182019050919050565b7f4e487b7100000000000000000000000000000000000000000000000000000000600052601160045260246000fd5b61114281611079565b811461114d57600080fd5b50565b611159816110b7565b811461116457600080fd5b5056fea26469706673582212200f7d5ed5e36b240098132d423f01482617af438dbac28e70d1626139ae8a3db064736f6c63430008000033",
  "immutableReferences": {},
  "source": "// SPDX-License-Identifier: MIT\npragma solidity ^0.8.0;\n\ncontract ChessGame {\n    struct Game {\n        uint256 gameId;\n        address player1;\n        address player2;\n        uint256 stake;\n        address winner;\n        uint256 timestamp;\n        bool player2Joined; // Tracks if player2 has joined\n    }\n\n    mapping(uint256 => Game) public games;\n    uint256 public gameCount = 0;\n\n    // Events to track game lifecycle\n    event GameCreated(uint256 indexed gameId, address indexed player1, address indexed player2, uint256 stake);\n    event GameJoined(uint256 indexed gameId, address indexed player2);\n    event GameFinished(uint256 indexed gameId, address indexed winner);\n\n    // Function to create a new game with a stake\n    function createGame(address _player2) public payable {\n        require(msg.value > 0, \"Stake must be greater than zero\");\n        require(_player2 != address(0), \"Invalid player2 address\");\n        require(_player2 != msg.sender, \"Player2 cannot be the same as player1\");\n\n        gameCount++;\n        games[gameCount] = Game({\n            gameId: gameCount,\n            player1: msg.sender,\n            player2: _player2,\n            stake: msg.value,\n            winner: address(0),\n            timestamp: block.timestamp,\n            player2Joined: false\n        });\n\n        emit GameCreated(gameCount, msg.sender, _player2, msg.value);\n    }\n\n    // Function to join an existing game\n    function joinGame(uint256 _gameId) public payable {\n        Game storage game = games[_gameId];\n        require(game.player2 == msg.sender, \"You are not the invited player\");\n        require(game.winner == address(0), \"Game already finished\");\n        require(msg.value == game.stake, \"Stake amount must match\");\n        require(!game.player2Joined, \"Player2 already joined\");\n\n        // Update game state\n        game.player2Joined = true;\n\n        emit GameJoined(_gameId, msg.sender);\n    }\n\n    // Function to declare the winner and distribute the reward\n    function declareWinner(uint256 _gameId, address _winner) public {\n        Game storage game = games[_gameId];\n        require(game.winner == address(0), \"Winner already declared\");\n        require(msg.sender == game.player1 || msg.sender == game.player2, \"Only players can declare winner\");\n        require(_winner == game.player1 || _winner == game.player2, \"Invalid winner address\");\n\n        game.winner = _winner;\n\n        // Transfer the combined stake to the winner\n        payable(_winner).transfer(game.stake * 2);\n\n        emit GameFinished(_gameId, _winner);\n    }\n}\n",
  "sourcePath": "/Users/leonslenkovs/Desktop/Projects/chessbit/chessbit-contracts/contracts/ChessGame.sol",
  "compiler": {
    "name": "solc",
    "version": "0.8.0+commit.c7dfd78e.Emscripten.clang"
  },
  "schemaVersion": "3.4.16",
  "updatedAt": "2024-09-29T09:22:13.402Z",
  "networkType": "ethereum",
  "devdoc": {
    "kind": "dev",
    "methods": {},
    "version": 1
  },
  "userdoc": {
    "kind": "user",
    "methods": {},
    "version": 1
  }
}